{
  "_format": "hh-sol-artifact-1",
  "contractName": "HackathonFunding",
  "sourceName": "contracts/HackathonFunding.sol",
  "abi": [
    {
      "inputs": [],
      "stateMutability": "nonpayable",
      "type": "constructor"
    },
    {
      "anonymous": false,
      "inputs": [
        {
          "indexed": false,
          "internalType": "uint256",
          "name": "amount",
          "type": "uint256"
        }
      ],
      "name": "Funded",
      "type": "event"
    },
    {
      "anonymous": false,
      "inputs": [],
      "name": "HackathonEnded",
      "type": "event"
    },
    {
      "anonymous": false,
      "inputs": [
        {
          "indexed": false,
          "internalType": "address",
          "name": "winner",
          "type": "address"
        },
        {
          "indexed": false,
          "internalType": "uint256",
          "name": "amount",
          "type": "uint256"
        }
      ],
      "name": "PrizeDistributed",
      "type": "event"
    },
    {
      "anonymous": false,
      "inputs": [
        {
          "indexed": false,
          "internalType": "address[]",
          "name": "winners",
          "type": "address[]"
        }
      ],
      "name": "WinnersSet",
      "type": "event"
    },
    {
      "inputs": [],
      "name": "distributePrizes",
      "outputs": [],
      "stateMutability": "nonpayable",
      "type": "function"
    },
    {
      "inputs": [],
      "name": "endHackathon",
      "outputs": [],
      "stateMutability": "nonpayable",
      "type": "function"
    },
    {
      "inputs": [],
      "name": "fundHackathon",
      "outputs": [],
      "stateMutability": "payable",
      "type": "function"
    },
    {
      "inputs": [],
      "name": "getBalance",
      "outputs": [
        {
          "internalType": "uint256",
          "name": "",
          "type": "uint256"
        }
      ],
      "stateMutability": "view",
      "type": "function"
    },
    {
      "inputs": [],
      "name": "isEnded",
      "outputs": [
        {
          "internalType": "bool",
          "name": "",
          "type": "bool"
        }
      ],
      "stateMutability": "view",
      "type": "function"
    },
    {
      "inputs": [],
      "name": "isFunded",
      "outputs": [
        {
          "internalType": "bool",
          "name": "",
          "type": "bool"
        }
      ],
      "stateMutability": "view",
      "type": "function"
    },
    {
      "inputs": [],
      "name": "organizer",
      "outputs": [
        {
          "internalType": "address",
          "name": "",
          "type": "address"
        }
      ],
      "stateMutability": "view",
      "type": "function"
    },
    {
      "inputs": [],
      "name": "prizesDistributed",
      "outputs": [
        {
          "internalType": "bool",
          "name": "",
          "type": "bool"
        }
      ],
      "stateMutability": "view",
      "type": "function"
    },
    {
      "inputs": [
        {
          "internalType": "address[]",
          "name": "_winners",
          "type": "address[]"
        }
      ],
      "name": "setWinners",
      "outputs": [],
      "stateMutability": "nonpayable",
      "type": "function"
    },
    {
      "inputs": [],
      "name": "totalFunding",
      "outputs": [
        {
          "internalType": "uint256",
          "name": "",
          "type": "uint256"
        }
      ],
      "stateMutability": "view",
      "type": "function"
    },
    {
      "inputs": [
        {
          "internalType": "uint256",
          "name": "",
          "type": "uint256"
        }
      ],
      "name": "winners",
      "outputs": [
        {
          "internalType": "address",
          "name": "",
          "type": "address"
        }
      ],
      "stateMutability": "view",
      "type": "function"
    }
  ],
  "bytecode": "0x608060405234801561001057600080fd5b50336000806101000a81548173ffffffffffffffffffffffffffffffffffffffff021916908373ffffffffffffffffffffffffffffffffffffffff160217905550611c18806100606000396000f3fe60806040526004361061009c5760003560e01c80637c654303116100645780637c654303146101625780637ce52eb61461018d578063a2fb1175146101a4578063a4fd6f56146101e1578063e94ab8781461020c578063fe47a8a7146102165761009c565b8063038382a5146100a157806312065fe0146100b85780632777724b146100e3578063445e6b391461010e5780636120326514610137575b600080fd5b3480156100ad57600080fd5b506100b6610241565b005b3480156100c457600080fd5b506100cd610365565b6040516100da9190611949565b60405180910390f35b3480156100ef57600080fd5b506100f861036d565b60405161010591906117ee565b60405180910390f35b34801561011a57600080fd5b50610135600480360381019061013091906113ec565b610380565b005b34801561014357600080fd5b5061014c610621565b6040516101599190611788565b60405180910390f35b34801561016e57600080fd5b50610177610645565b60405161018491906117ee565b60405180910390f35b34801561019957600080fd5b506101a2610658565b005b3480156101b057600080fd5b506101cb60048036038101906101c6919061142d565b6110b3565b6040516101d89190611788565b60405180910390f35b3480156101ed57600080fd5b506101f66110f2565b60405161020391906117ee565b60405180910390f35b610214611103565b005b34801561022257600080fd5b5061022b61127f565b6040516102389190611949565b60405180910390f35b60008054906101000a900473ffffffffffffffffffffffffffffffffffffffff1673ffffffffffffffffffffffffffffffffffffffff163373ffffffffffffffffffffffffffffffffffffffff16146102cf576040517f08c379a00000000000000000000000000000000000000000000000000000000081526004016102c690611849565b60405180910390fd5b60028054906101000a900460ff161561031d576040517f08c379a000000000000000000000000000000000000000000000000000000000815260040161031490611809565b60405180910390fd5b60016002806101000a81548160ff0219169083151502179055507f6573c53f68f66952ad69e9f4ac908d5e02e5f7031efac6b75cc07d8d393766d560405160405180910390a1565b600047905090565b600260019054906101000a900460ff1681565b60008054906101000a900473ffffffffffffffffffffffffffffffffffffffff1673ffffffffffffffffffffffffffffffffffffffff163373ffffffffffffffffffffffffffffffffffffffff161461040e576040517f08c379a000000000000000000000000000000000000000000000000000000000815260040161040590611849565b60405180910390fd5b600260009054906101000a900460ff1661045d576040517f08c379a000000000000000000000000000000000000000000000000000000000815260040161045490611889565b60405180910390fd5b600260019054906101000a900460ff16156104ad576040517f08c379a00000000000000000000000000000000000000000000000000000000081526004016104a490611829565b60405180910390fd5b60018151101580156104c157506003815111155b610500576040517f08c379a00000000000000000000000000000000000000000000000000000000081526004016104f7906118a9565b60405180910390fd5b60005b81518110156105cf57600073ffffffffffffffffffffffffffffffffffffffff1682828151811061055d577f4e487b7100000000000000000000000000000000000000000000000000000000600052603260045260246000fd5b602002602001015173ffffffffffffffffffffffffffffffffffffffff1614156105bc576040517f08c379a00000000000000000000000000000000000000000000000000000000081526004016105b3906118e9565b60405180910390fd5b80806105c790611ade565b915050610503565b5080600390805190602001906105e6929190611285565b507f8451dabc49a0b82cffb0a79a6771fe2718264aae54a4eff4d4463748813ec56f8160405161061691906117cc565b60405180910390a150565b60008054906101000a900473ffffffffffffffffffffffffffffffffffffffff1681565b600260009054906101000a900460ff1681565b60008054906101000a900473ffffffffffffffffffffffffffffffffffffffff1673ffffffffffffffffffffffffffffffffffffffff163373ffffffffffffffffffffffffffffffffffffffff16146106e6576040517f08c379a00000000000000000000000000000000000000000000000000000000081526004016106dd90611849565b60405180910390fd5b600260009054906101000a900460ff16610735576040517f08c379a000000000000000000000000000000000000000000000000000000000815260040161072c90611889565b60405180910390fd5b60006003805490501161077d576040517f08c379a000000000000000000000000000000000000000000000000000000000815260040161077490611869565b60405180910390fd5b600260019054906101000a900460ff16156107cd576040517f08c379a00000000000000000000000000000000000000000000000000000000081526004016107c490611829565b60405180910390fd5b60028054906101000a900460ff1661081a576040517f08c379a000000000000000000000000000000000000000000000000000000000815260040161081190611929565b60405180910390fd5b6000600380805490501415610c63576064603260015461083a9190611a3c565b6108449190611a0b565b90506003600081548110610881577f4e487b7100000000000000000000000000000000000000000000000000000000600052603260045260246000fd5b9060005260206000200160009054906101000a900473ffffffffffffffffffffffffffffffffffffffff1673ffffffffffffffffffffffffffffffffffffffff166108fc829081150290604051600060405180830381858888f193505050501580156108f1573d6000803e3d6000fd5b507fb8e091d87f82e56d22276c9a0088ea5d6068e355383dc08b2721b7b6cb10e845600360008154811061094e577f4e487b7100000000000000000000000000000000000000000000000000000000600052603260045260246000fd5b9060005260206000200160009054906101000a900473ffffffffffffffffffffffffffffffffffffffff16826040516109889291906117a3565b60405180910390a16064601e6001546109a19190611a3c565b6109ab9190611a0b565b905060036001815481106109e8577f4e487b7100000000000000000000000000000000000000000000000000000000600052603260045260246000fd5b9060005260206000200160009054906101000a900473ffffffffffffffffffffffffffffffffffffffff1673ffffffffffffffffffffffffffffffffffffffff166108fc829081150290604051600060405180830381858888f19350505050158015610a58573d6000803e3d6000fd5b507fb8e091d87f82e56d22276c9a0088ea5d6068e355383dc08b2721b7b6cb10e8456003600181548110610ab5577f4e487b7100000000000000000000000000000000000000000000000000000000600052603260045260246000fd5b9060005260206000200160009054906101000a900473ffffffffffffffffffffffffffffffffffffffff1682604051610aef9291906117a3565b60405180910390a160646014600154610b089190611a3c565b610b129190611a0b565b90506003600281548110610b4f577f4e487b7100000000000000000000000000000000000000000000000000000000600052603260045260246000fd5b9060005260206000200160009054906101000a900473ffffffffffffffffffffffffffffffffffffffff1673ffffffffffffffffffffffffffffffffffffffff166108fc829081150290604051600060405180830381858888f19350505050158015610bbf573d6000803e3d6000fd5b507fb8e091d87f82e56d22276c9a0088ea5d6068e355383dc08b2721b7b6cb10e8456003600281548110610c1c577f4e487b7100000000000000000000000000000000000000000000000000000000600052603260045260246000fd5b9060005260206000200160009054906101000a900473ffffffffffffffffffffffffffffffffffffffff1682604051610c569291906117a3565b60405180910390a1611095565b60026003805490501415610f445760646046600154610c829190611a3c565b610c8c9190611a0b565b90506003600081548110610cc9577f4e487b7100000000000000000000000000000000000000000000000000000000600052603260045260246000fd5b9060005260206000200160009054906101000a900473ffffffffffffffffffffffffffffffffffffffff1673ffffffffffffffffffffffffffffffffffffffff166108fc829081150290604051600060405180830381858888f19350505050158015610d39573d6000803e3d6000fd5b507fb8e091d87f82e56d22276c9a0088ea5d6068e355383dc08b2721b7b6cb10e8456003600081548110610d96577f4e487b7100000000000000000000000000000000000000000000000000000000600052603260045260246000fd5b9060005260206000200160009054906101000a900473ffffffffffffffffffffffffffffffffffffffff1682604051610dd09291906117a3565b60405180910390a16064601e600154610de99190611a3c565b610df39190611a0b565b90506003600181548110610e30577f4e487b7100000000000000000000000000000000000000000000000000000000600052603260045260246000fd5b9060005260206000200160009054906101000a900473ffffffffffffffffffffffffffffffffffffffff1673ffffffffffffffffffffffffffffffffffffffff166108fc829081150290604051600060405180830381858888f19350505050158015610ea0573d6000803e3d6000fd5b507fb8e091d87f82e56d22276c9a0088ea5d6068e355383dc08b2721b7b6cb10e8456003600181548110610efd577f4e487b7100000000000000000000000000000000000000000000000000000000600052603260045260246000fd5b9060005260206000200160009054906101000a900473ffffffffffffffffffffffffffffffffffffffff1682604051610f379291906117a3565b60405180910390a1611094565b60015490506003600081548110610f84577f4e487b7100000000000000000000000000000000000000000000000000000000600052603260045260246000fd5b9060005260206000200160009054906101000a900473ffffffffffffffffffffffffffffffffffffffff1673ffffffffffffffffffffffffffffffffffffffff166108fc829081150290604051600060405180830381858888f19350505050158015610ff4573d6000803e3d6000fd5b507fb8e091d87f82e56d22276c9a0088ea5d6068e355383dc08b2721b7b6cb10e8456003600081548110611051577f4e487b7100000000000000000000000000000000000000000000000000000000600052603260045260246000fd5b9060005260206000200160009054906101000a900473ffffffffffffffffffffffffffffffffffffffff168260405161108b9291906117a3565b60405180910390a15b5b6001600260016101000a81548160ff02191690831515021790555050565b600381815481106110c357600080fd5b906000526020600020016000915054906101000a900473ffffffffffffffffffffffffffffffffffffffff1681565b60028054906101000a900460ff1681565b60008054906101000a900473ffffffffffffffffffffffffffffffffffffffff1673ffffffffffffffffffffffffffffffffffffffff163373ffffffffffffffffffffffffffffffffffffffff1614611191576040517f08c379a000000000000000000000000000000000000000000000000000000000815260040161118890611849565b60405180910390fd5b600260009054906101000a900460ff16156111e1576040517f08c379a00000000000000000000000000000000000000000000000000000000081526004016111d890611909565b60405180910390fd5b60003411611224576040517f08c379a000000000000000000000000000000000000000000000000000000000815260040161121b906118c9565b60405180910390fd5b346001819055506001600260006101000a81548160ff0219169083151502179055507fc4c14883ae9fd8e26d5d59e3485ed29fd126d781d7e498a4ca5c54c8268e4936346040516112759190611949565b60405180910390a1565b60015481565b8280548282559060005260206000209081019282156112fe579160200282015b828111156112fd5782518260006101000a81548173ffffffffffffffffffffffffffffffffffffffff021916908373ffffffffffffffffffffffffffffffffffffffff160217905550916020019190600101906112a5565b5b50905061130b919061130f565b5090565b5b80821115611328576000816000905550600101611310565b5090565b600061133f61133a84611995565b611964565b9050808382526020820190508285602086028201111561135e57600080fd5b60005b8581101561138e57816113748882611398565b845260208401935060208301925050600181019050611361565b5050509392505050565b6000813590506113a781611bb4565b92915050565b600082601f8301126113be57600080fd5b81356113ce84826020860161132c565b91505092915050565b6000813590506113e681611bcb565b92915050565b6000602082840312156113fe57600080fd5b600082013567ffffffffffffffff81111561141857600080fd5b611424848285016113ad565b91505092915050565b60006020828403121561143f57600080fd5b600061144d848285016113d7565b91505092915050565b6000611462838361146e565b60208301905092915050565b61147781611a96565b82525050565b61148681611a96565b82525050565b6000611497826119d1565b6114a181856119e9565b93506114ac836119c1565b8060005b838110156114dd5781516114c48882611456565b97506114cf836119dc565b9250506001810190506114b0565b5085935050505092915050565b6114f381611aa8565b82525050565b6000611506600d836119fa565b91507f416c726561647920656e646564000000000000000000000000000000000000006000830152602082019050919050565b6000611546601a836119fa565b91507f5072697a657320616c72656164792064697374726962757465640000000000006000830152602082019050919050565b6000611586601c836119fa565b91507f4f6e6c79206f7267616e697a65722063616e2063616c6c2074686973000000006000830152602082019050919050565b60006115c6600f836119fa565b91507f57696e6e657273206e6f742073657400000000000000000000000000000000006000830152602082019050919050565b6000611606600e836119fa565b91507f4d7573742062652066756e6465640000000000000000000000000000000000006000830152602082019050919050565b60006116466017836119fa565b91507f4d7573742073656c65637420312d332077696e6e6572730000000000000000006000830152602082019050919050565b60006116866012836119fa565b91507f4d7573742073656e6420736f6d652045544800000000000000000000000000006000830152602082019050919050565b60006116c66016836119fa565b91507f496e76616c69642077696e6e65722061646472657373000000000000000000006000830152602082019050919050565b6000611706600e836119fa565b91507f416c72656164792066756e6465640000000000000000000000000000000000006000830152602082019050919050565b60006117466017836119fa565b91507f4861636b6174686f6e206d75737420626520656e6465640000000000000000006000830152602082019050919050565b61178281611ad4565b82525050565b600060208201905061179d600083018461147d565b92915050565b60006040820190506117b8600083018561147d565b6117c56020830184611779565b9392505050565b600060208201905081810360008301526117e6818461148c565b905092915050565b600060208201905061180360008301846114ea565b92915050565b60006020820190508181036000830152611822816114f9565b9050919050565b6000602082019050818103600083015261184281611539565b9050919050565b6000602082019050818103600083015261186281611579565b9050919050565b60006020820190508181036000830152611882816115b9565b9050919050565b600060208201905081810360008301526118a2816115f9565b9050919050565b600060208201905081810360008301526118c281611639565b9050919050565b600060208201905081810360008301526118e281611679565b9050919050565b60006020820190508181036000830152611902816116b9565b9050919050565b60006020820190508181036000830152611922816116f9565b9050919050565b6000602082019050818103600083015261194281611739565b9050919050565b600060208201905061195e6000830184611779565b92915050565b6000604051905081810181811067ffffffffffffffff8211171561198b5761198a611b85565b5b8060405250919050565b600067ffffffffffffffff8211156119b0576119af611b85565b5b602082029050602081019050919050565b6000819050602082019050919050565b600081519050919050565b6000602082019050919050565b600082825260208201905092915050565b600082825260208201905092915050565b6000611a1682611ad4565b9150611a2183611ad4565b925082611a3157611a30611b56565b5b828204905092915050565b6000611a4782611ad4565b9150611a5283611ad4565b9250817fffffffffffffffffffffffffffffffffffffffffffffffffffffffffffffffff0483118215151615611a8b57611a8a611b27565b5b828202905092915050565b6000611aa182611ab4565b9050919050565b60008115159050919050565b600073ffffffffffffffffffffffffffffffffffffffff82169050919050565b6000819050919050565b6000611ae982611ad4565b91507fffffffffffffffffffffffffffffffffffffffffffffffffffffffffffffffff821415611b1c57611b1b611b27565b5b600182019050919050565b7f4e487b7100000000000000000000000000000000000000000000000000000000600052601160045260246000fd5b7f4e487b7100000000000000000000000000000000000000000000000000000000600052601260045260246000fd5b7f4e487b7100000000000000000000000000000000000000000000000000000000600052604160045260246000fd5b611bbd81611a96565b8114611bc857600080fd5b50565b611bd481611ad4565b8114611bdf57600080fd5b5056fea264697066735822122041554f268d6f843619f065767e43dea8374570d1ab1b38aebcbdb37caf8fb10964736f6c63430008000033",
  "linkReferences": {},
  "deployedLinkReferences": {}
}